:020000040800F2
:10000000D8040020C50000084B100008DB0F0008D2
:1000100000000000000000000000000000000000E0
:100020000000000000000000000000004F10000869
:1000300000000000000000004D10000851100008F2
:10004000D700000800000000D7000008D700000813
:10005000D7000008D7000008D1010008E901000816
:1000600000000000D7000008D7000008D7000008F3
:1000700031010008FD100008D70000080000000052
:10008000251100080000000000000000D700000853
:1000900000000000D7000008D7000008D7000008C3
:1000A00000000000D700000800000000D700000892
:1000B0000348854600F02AF800480047D911000897
:1000C000D80400200448804704480047FEE7FEE7C4
:1000D000FEE7FEE7FEE7FEE7A1100008B10000081A
:1000E00030B50B46014600202022012409E00D46D0
:1000F000D5409D4205D31D469540491B2546954058
:1001000040191546521E002DF1DC30BD064C01256C
:10011000064E05E0E36807CC2B430C3C98471034AF
:10012000B442F7D3FFF7C8FFD0130008F01300085C
:1001300010B5024800F078F810BD00000C00002057
:10014000F8B5044600200090206881688907890F6F
:10015000012905D10168C90731D1C16809042ED42C
:100160008168184A10261140012500291AD181689A
:1001700029438160154814490068FFF7B1FF0090DA
:10018000002802D0401E0090FCD100F0A9F90746DB
:1001900020680068C043C00711D000F0A1F9C01B5F
:1001A000022807D9606C30436064A06C2843A064C7
:1001B0000120F8BD20680068C043C007EDD10020D1
:1001C000F8BD00001700008040420F00080000202A
:1001D00004484069000704D510B5082000F0C6F8AF
:1001E00010BD70470004014004484069800604D5F2
:1001F00010B5202000F0BAF810BD7047000401408F
:10020000054A0168914205D110B500F00AF803498A
:10021000488010BD7047000000240140000000200D
:1002200070470068006C704770B50446006801684C
:10023000490702D54168490705D40168090730D547
:10024000416809072DD5616CC90604D4616C01228F
:10025000520211436164C1680C250905890F002908
:100260001AD1216A002917D10168090714D58168BC
:1002700001224907002908DB4168A9434160606CFD
:10028000110288431043606406E0606C202108433B
:100290006064A06C1043A0642046FFF7B1FF2068A3
:1002A00005602068016809060DD5406800060AD57A
:1002B000606C0121090408436064204600F01CF8CA
:1002C00021688020086020680168C90613D541684C
:1002D000C90610D5616B1025012902D0C168C90774
:1002E00007D0A16C02221143A16405602046FFF7EC
:1002F00097FF2068056070BD7047000070B5044628
:10030000216800208968490721D42546403529788D
:1003100001291CD001212970E169012904D020465E
:10032000FFF70EFF002811D1616C0A4A1140FF222D
:100330000132114361640021A164297022681C21EB
:10034000116021688A6804231A438A6070BD022004
:1003500070BD0000FEF1FFFF02220349082801D012
:10036000202800D10A7070470000002004494A6923
:10037000024204D010B54861FFF7EEFF10BD704790
:10038000000401400B680022002B7DD0F8B401244A
:1003900094400B68A446234077D04C68022C01D0CF
:1003A000122C0CD1D408A40025182E6A5407E40E90
:1003B0000F27A740BE430F69A74037432F62066847
:1003C00055000324AC400F79A643BF07BF0FAF40D1
:1003D000374307604E68012E05D0022E03D0112E40
:1003E00001D0122E0ED18668CF68A643AF403743A6
:1003F000876047686646B7430E79F606F60F964063
:100400003E434660C668A6438C68AC403443C46033
:100410004C68E4004AD5294CA56901263543A561FD
:10042000A469950834400094254CAD002F19BD688F
:100430009407240F0F26A640B5430926F606B042BE
:1004400001D100260FE01F4EB04201D101260AE083
:100450001D4EB04201D1022605E01C4EB04201D132
:10046000032600E00526A6402E43BE60184D2C68EA
:100470004E689C43F60300D51C432C606C684E68A4
:100480009C43B60303D501E017E00FE01C436C600A
:10049000AC684E689C43F60200D51C43AC60EC6827
:1004A0004E689C43B60200D51C43EC600B68521C9E
:1004B000D34000D06BE7F8BC704770470010024093
:1004C000000001400004004800080048000C0048FB
:1004D00000040140002A01D08161704781627047A9
:1004E00001480068704700000400002002480168CD
:1004F000491C0160704700000400002010B5064848
:100500000168102211430160002000F007F800F09C
:1005100017F8002010BD00000020024010B504466E
:1005200000F006F97D21C900FFF7DAFD00F016FBA7
:1005300000222146501E00F035F8002010BD0000BA
:10054000084881B0816901221143816181691140AC
:100550000091C26901040A43C261C0690840009069
:1005600001B0704700100240C106C90E012088404A
:10057000014908607047000080E100E0C106C90E33
:1005800001208840014908607047000000E100E058
:10059000C106C90E0120884001490860704700006B
:1005A00000E200E08207D30EFF229A408907090E7D
:1005B000994000280BDA0007000F08388308084824
:1005C0009B001818C36993430B43C36170478308AA
:1005D00004489B001818036893430B43036070475B
:1005E00000ED00E000E400E0F8B504464B480D469D
:1005F0000068C007C00FA8420AD2484801684908ED
:100600004900294301600068C007C00FA84269D1B2
:100610002078434F800705D57868F0218843A1688A
:10062000084378602078C0074CD0606801281DD04E
:10063000396802281ED0890754D57968890889004D
:1006400001437960FFF74CFF61680646012914D029
:100650000229796822D00907890F33D0FFF740FFBC
:10066000811B3048814229D90320F8BD39688903AC
:1006700038D5E2E7890135D5DFE779680907890FC1
:1006800001291FD0FFF72CFF811B26488142EBD8A0
:1006900078680007800F0128F4D113E00907890F5B
:1006A00002290FD0FFF71CFF811B1E488142DBD8B7
:1006B00078680007800F0228F4D103E0786800070B
:1006C000800FCBD115480168C907C90FA9420BD9C2
:1006D000016849084900294301600068C007C00F4C
:1006E000A84201D00120F8BD2078400706D57868DF
:1006F000072109028843E1680843786000F01EF88A
:100700007968094A0906090F515CC8400749086021
:100710000020FFF703FF0020F8BD0000002002408A
:100720000010024088130000C013000808000020D9
:1007300001480068704700000800002010B513A0B1
:100740000FC888B06C460FC414A00FC80FC4174B55
:100750005A680C2011460140154804290FD0082979
:100760000DD19102090F6C46645CD96A04AB09078C
:10077000090F595CD20304D5FFF7B2FC604308B0FF
:1007800010BD0C4808B0604310BD00000203040512
:10079000060708090A0B0C0D0E0F101001020304C6
:1007A00005060708090A0B0C0D0E0F100010024079
:1007B00000127A0000093D00F8B504460078E44DC7
:1007C000C0074CD068680007800F012807D0686810
:1007D0000007800F022809D16868C00306D5286881
:1007E00080033CD5606800287ED038E00121606835
:1007F000090401280AD08A00002801D005281AD04F
:100800002868884328602868904301E028680843E6
:1008100028606068002814D0FFF762FE064628684A
:1008200080031CD4FFF75CFE801B642876D8286800
:100830008003F7D513E02868104328602868084330
:10084000E6E7FFF74DFE06462868800307D5FFF769
:1008500047FE801B642861D828688003F7D420787D
:10086000800740D568680007800F07D068680007D8
:10087000800F022809D16868C00306D42868800761
:1008800018D5E06801282FD114E0E0680028286816
:1008900018D0012108432860FFF722FE0646286889
:1008A000800707D4FFF71CFE801B022836D8286873
:1008B0008007F7D52868F82188432169C9000843D3
:1008C000286010E0400840002860FFF709FE064657
:1008D0002868800707D5FFF703FE801B02281DD874
:1008E00028688007F7D400E02FE12078000727D59B
:1008F000E0690028686A12D0012108436862FFF7A6
:10090000EFFD0646686A80071AD4FFF7E9FD801BF1
:10091000022803D8686A8007F7D511E08CE0400808
:1009200040006862FFF7DCFD0646686A800707D56D
:10093000FFF7D6FD801B02287ED8686A8007F7D4AF
:10094000207804274007002867DAE8690026C000FD
:1009500007D4E869B9060843E861E8690840012658
:1009600000907C480168C90516D40068FF21013158
:10097000084378490860FFF7B3FD009075480068A8
:10098000C00509D4FFF7ACFD0099401A64287DD852
:1009900070480068C005F5D5A06801280AD0002875
:1009A00001D005281ED0286A400840002862286A25
:1009B000B84302E0286A012108432862A0680028A1
:1009C00014D0FFF78DFD0090286A80071ED4FFF732
:1009D00087FD0099411A6048814257D8286A8007EC
:1009E000F5D513E0286A38432862E3E7FFF778FD7E
:1009F0000090286A800709D5FFF772FD0099411A17
:100A00005548814242D8286A8007F5D4002E04D088
:100A1000E869012109078843E8612078C0061BD5F1
:100A20006069012834D0401D686B4ED0384368633C
:100A3000686B4008400000E028E06863FFF750FD65
:100A40000646686B800707D5FFF74AFD801B022822
:100A50001CD8686B8007F7D4206A002873D06968B7
:100A60000907890F022971D0012636060228286855
:100A700035D0B0432860FFF733FD04462868800175
:100A800061D5FFF72DFD001B022859D90320F8BDC1
:100A9000686B38436863686B012108436863FFF73C
:100AA0001FFD0646686B800707D4FFF719FD801B02
:100AB0000228EBD8686B8007F7D5686BF82188436C
:100AC000A169C90008436863C6E7B8436863696BF6
:100AD000F8208143A069C00001436963BCE7B043CB
:100AE0002860FFF7FDFC07462868800107D5FFF75F
:100AF000F7FCC01B0228C9D828688001F7D4E86A2F
:100B0000E16A000900010843E862616AA06A0843DB
:100B100069683D22120491430843686028683043A5
:100B20002860FFF7DDFC0446286880010BD4FFF73E
:100B3000D7FC001B0228A9D828688001F7D502E05D
:100B4000286880019DD40020F8BDFFE70120F8BD92
:100B50000010024000700040881300000B4910B4E0
:100B6000401E884202D910BC0120704708494861E4
:100B700008480722C3691B021B0A4C042343C361B4
:100B8000002088610A6110BC70470000FFFFFF0071
:100B900000E000E004ED00E07047704702462032BC
:100BA000137F012B01D10220704770B40124147708
:100BB0000223537703685D687026B5435D60036860
:100BC0005D680E6835435D6003689D688026B543A7
:100BD0009D600068836849680B43836054770020F8
:100BE000107770BC7047002801D10120704770B5A4
:100BF000054604462035687F002803D12877204623
:100C000000F00AF802206877211D206800F096FAAB
:100C100001206877002070BD08B50068124A1349AA
:100C200090420DD18A69C01402438A618969002209
:100C30000140009111460D20FFF7B4FC0D200FE09C
:100C40000B4A90420ED1CA6902200243CA61C969A7
:100C500000220140009111461020FFF7A3FC102054
:100C6000FFF78CFC08BD0000002C01400010024082
:100C7000000400400168CA6801231A43CA60006882
:100C800001681943016000207047000002220146FC
:100C900020314A770068026A074B1A4207D1026A7C
:100CA0009B101A4203D102685208520002600120D0
:100CB00048770020704700001111000003462033E0
:100CC0001A7F012A02D001221A7701E00220704720
:100CD000F0B502225A77026894687725FF26AC4364
:100CE0003602B44394600A6870240725502A3DD028
:100CF0000CDC202A78D004DC002A76D0102A52D1CD
:100D000099E0302A72D0402A4DD170E0602A4BD051
:100D1000702A1BD001242403121B12D0A24242D1FC
:100D200002688D684C68C968976809022143B74317
:100D3000294339439160006881680122920311437D
:100D400030E000688168C908C9002BE002688D683E
:100D50004C68C968976809022143B743294339435E
:100D600091600068816877229143E8E702684E68E5
:100D7000CF68116AB646BC46166A760876001662D7
:100D80009669F027BE4367463F0137430A26B143C1
:100D90007646314397611162006850228168A14311
:100DA0001143294381605DE002684E68CF68116A93
:100DB000B646BC461026B14311629669116A0F27E8
:100DC0003F03BE4367463F033743A026B143764601
:100DD00036010E4397611662006860228168A14364
:100DE0001143294381603DE02DE01EE033E00268BD
:100DF0004E68CF68116AB646BC46166A7608760019
:100E000016629669F027BE4367463F0137430A26BC
:100E1000B143764631439761116200684022816890
:100E2000A1431143294381601CE000688168A1430C
:100E30002943816016E0006810228168A1431143B4
:100E4000294381600EE0006820228168A14311439C
:100E50002943816006E0006830228168A143114384
:100E6000294381600120587700201877F0BD704732
:100E700070B50446006801690025C9438907002947
:100E800015DBC168C943890711D4E91E016101203E
:100E90002077206880698007204602D0FFF7E7FFAF
:100EA00004E000F096F8204600F094F825772068DA
:100EB0000169C943490717D4C168C943490713D415
:100EC0000421C943016102202077206880698005E0
:100ED000800F204602D0FFF7CAFF04E000F079F847
:100EE000204600F077F8257720680169C943090793
:100EF00016D4C168C943090712D40821C943016146
:100F0000042020772068C0698007204602D0FFF7C0
:100F1000AEFF04E000F05DF8204600F05BF82577B6
:100F200020680169C943C90617D4C168C943C90605
:100F300013D41021C9430161082020772068C069BB
:100F40008005800F204602D0FFF791FF04E000F0FB
:100F500040F8204600F03EF8257720680169C94333
:100F6000C90708D1C168C943C90704D1891E0161F5
:100F7000204600F030F820680169C943090609D409
:100F8000C168C943090605D48021C94301612046CF
:100F9000FFF702FE20680169C943490609D4C16808
:100FA000C943490605D44021C9430161204600F0E8
:100FB00013F820680169C943890609D4C168C94387
:100FC000890605D42021C94301612046FFF7E5FDCC
:100FD00070BD7047704770477047FEE710B5092431
:100FE000E406002811D001281FD00022022120464B
:100FF000FFF770FA002204212046FFF76BFA002267
:1010000010212046FFF766FA10BD0122022120467A
:10101000FFF760FA002204212046FFF75BFA012265
:1010200010212046FFF756FA10BD0022022120466B
:10103000FFF750FA012204212046FFF74BFA012264
:1010400010212046FFF746FA10BD704770477047E1
:1010500010B5FFF74BFA10BD10B590B000240A94FC
:1010600012200F940090089401200D940390059095
:1010700001940994102002940B940E940794049008
:1010800006900C946846FFF797FB07200C900D9490
:101090000E9400210F940CA8FFF7A6FA10B010BD13
:1010A000134801680122114301604168114A11404F
:1010B00041600168104A11400160016801229204F8
:1010C0009143016041683F22120491434160C16A2B
:1010D00009090901C162016BFF22143291430163C6
:1010E000416B49084900416300218160704700005D
:1010F000001002400CB8FF08FFFFF6FE10B50748CD
:10110000FFF7B6FE06490878052804D0062801D165
:101110000020087010BD0320FBE7000058000020ED
:101120000000002010B50348FFF7A2FE024904208A
:10113000087010BD980000200000002070B4026804
:10114000184C194EA04201D0B04204D1134670256C
:101150004A68AB431A43154B154DA04208D0B04224
:1011600006D0144EB04203D0984201D0A84204D118
:1011700003263602B243CE6832438026B2434E691C
:10118000324302608A68C2620A688262A04203D067
:10119000984201D0A84201D109690163012141614E
:1011A00070BC7047002C0140000400400044014026
:1011B000004801400020004002E008C8121F08C19A
:1011C000002AFAD170477047002001E001C1121FC8
:1011D000002AFBD17047000086B0FFF78FF9FFF7B8
:1011E0003BFF00246B4D00940194029403940494FB
:1011F000696901204004014369616969224601402F
:10120000059109201621C006FFF764F91620012672
:10121000009009200196694602960394C006FFF7E4
:10122000B1F8682000905C480190032709206946C6
:1012300003970296C006FFF7A5F8780200900220F7
:10124000019009206946039704960294C006FFF7AF
:1012500099F80094524801940294039404944F49DD
:10126000059401608460504F0461C7604D4944613A
:10127000416080218161FFF7B6FCA81400906946A7
:101280004748FFF71BFD049404A945480594FFF760
:1012900085FC0094464801940294039404944349C5
:1012A000059401608460C7603E490461416080210B
:1012B0008161FFF798FCA814009069463C48FFF74D
:1012C000FDFC049404A93A480594FFF767FC092043
:1012D00001221021C006FFF7FDF80620FFF758F99C
:1012E0000620FFF74BF90720FFF752F90720FFF719
:1012F00045F9E96928040143E961E96908260140E3
:101300002C4D2D4C2027009120780528FCD201007F
:101310007944097949188F4402121627320020486F
:10132000FFF7B4FC0220FFF759FE6E616F610720E2
:10133000FFF724F90620FFF721F9012012E01F48EA
:10134000FEF7DCFFE0E70620FFF70EF96E610720ED
:10135000FFF70AF96F611248FFF78CFC0020FFF7D6
:101360003DFE0AE02070CFE70220FFF737FE0C4871
:10137000FFF78CFC0E48FFF77DFC0520F2E70C48D8
:10138000FFF784FC0648FFF775FC0120FFF726FEF7
:101390000620E7E70010024000003110002C014059
:1013A000580000203F1F0000B70B00000004004061
:1013B0009800002000040140000000200C000020E4
:1013C00000000000000000000102030406070809F5
:1013D000F0130008000000200C000000B811000805
:1013E000FC1300080C000020CC040000C811000809
:0C13F000000000000000000000127A0065
:04000005080000B13E
:00000001FF
