:020000040800F2
:1000000070130020450100085D180008DF16000885
:1000100000000000000000000000000000000000E0
:10002000000000000000000000000000A51800080B
:10003000000000000000000003010008F91800089B
:100040005701000800000000570100085701000890
:100050005701000857010008570100085701000820
:100060000000000057010008570100085701000870
:100070005701000857010008570100080000000060
:1000800057010008570100085701000857010008F0
:1000900057010008570100085701000857010008E0
:1000A00057010008570100085701000857010008D0
:1000B00057010008C91F00080348854600F08AF868
:1000C000004800470120000870130020084B196801
:1000D0000868203080F30988022080F31488BFF379
:1000E0006F8F3FBCAE4608BC04BC62B61847000028
:1000F00018000020EFF3108072B6704780F310886C
:100100007047EFF309800E4B1A6820381060F0C07A
:1001100044464D4656465F46F0C008B572B602F0FA
:10012000ABFA62B60CBC116808681030F0C8A04683
:10013000A946B246BB4680F309882038F0C8184764
:10014000180000200448804704480047FEE7FEE707
:10015000FEE7FEE7FEE7FEE751190008B9000008D8
:1001600030B50B46014600202022012409E00D464F
:10017000D5409D4205D31D469540491B25469540D7
:1001800040191546521E002DF1DC30BD03460B43CD
:100190009B0703D009E008C9121F08C0042AFAD23D
:1001A00003E00B780370401C491C521EF9D27047C3
:1001B000D2B201E00270401C491EFBD270470022FF
:1001C000F6E710B513460A4604461946FFF7F0FF56
:1001D000204610BD064C0125064E05E0E36807CC1D
:1001E0002B430C3C98471034B442F7D3FFF768FF19
:1001F000702A0008902A000838B519A000680090FD
:100200001848EF21017001224270FF218170C170F6
:100210000171417182710021C17103210172034694
:1002200001216A460020145C1D18401CC0B26C728B
:100230008842F8D300210B4A0124042308461518EC
:10024000AD79401C6918C0B289B29842F7D30B0A45
:100250001019437281720C21024801F025FB38BD50
:10026000010000001802002070B500240146203172
:100270004A78022A03D004218163012416E002682F
:1002800013680E25AB431360026813685B085B00BC
:1002900013600122056C1346AB40C56B6B604A705E
:1002A00000220A70416B002900D08847204670BDAB
:1002B000FEB5044609200027C0060D4684420FD033
:1002C0007F4884420CD07F48844209D07E488442D3
:1002D00006D07E48844203D0C1217DA001F08FFE6C
:1002E00028680104090C01D0000C03D0C22178A0B9
:1002F00001F085FE686800281FD001281DD0112854
:100300001BD0022819D0122817D08049884214D057
:100310007F49884211D07F4988420ED07E49884269
:100320000BD07E49884208D07D49884205D00328F9
:1003300003D0C32166A001F062FEA868002807D0A0
:100340000128FCD00228FAD0C42161A001F057FE98
:10035000B0E00121B94008400291060078D06868F9
:10036000022801D012281ED10920C006844206D0DE
:100370005348844203D0D32155A001F040FE2869A0
:10038000062803D9D42152A001F039FEF8088000D4
:100390000319186A7907CA0E0F2191408843296909
:1003A00091400143196221687A0003209040814303
:1003B0000192009028798007800F904008432060C8
:1003C0006868012805D0022803D0112801D012281E
:1003D0001BD1E868002807D0012805D0032803D0E6
:1003E000E8213BA001F00BFEA0680099019A884328
:1003F000E96891400143A1606068029988432979C6
:10040000C906C90FB94001436160E0680099019ACB
:100410008843A96891400143E1606868C00048D5FD
:10042000404881690122114381618069B908104007
:1004300000903D4889000B189868B9070A0F0F21F2
:10044000914088430921C9068C4202D1002110E065
:100450002FE01B498C4201D101210AE019498C424D
:1004600001D1022105E018498C4201D1032100E0AD
:1004700005219140014399602C4801686A68B143A5
:10048000D20300D53143016041686A68B1439203E9
:1004900000D53143416081686A68B143D20200D51A
:1004A00031438160C1686A68B143920200D531432B
:1004B000C1607F1C2E683046FE4000D049E7FEBD7B
:1004C0000004004800080048000C004800140048E0
:1004D0002E2E2F447269766572732F53544D33322A
:1004E000463078785F48414C5F4472697665722F78
:1004F0005372632F73746D3332663078785F68613E
:100500006C5F6770696F2E630000000000001110BF
:100510000000211000003110000012100000221015
:1005200000003210001002400000014000040140B1
:1005300070B515460C00064604D1FF21AD3108A068
:1005400001F05DFD002D08D0012D04D0FF21AE315A
:1005500003A001F054FDB46170BDB46270BD000031
:100560002E2E2F447269766572732F53544D333299
:10057000463078785F48414C5F4472697665722FE7
:100580005372632F73746D3332663078785F6861AD
:100590006C5F6770696F2E6300000000014800689F
:1005A000704700001000002002480168491C0160EB
:1005B000704700001000002010B5064801681022A6
:1005C00011430160032000F007F800F017F8002045
:1005D00010BD00000020024010B5044600F08CF968
:1005E0007D21C900FFF7BCFD00F018FE0022214666
:1005F000501E00F049F8002010BD000008B50A4860
:100600008169012211438161816911400091C269B0
:1006100001040A43C261C06900220840032100901E
:10062000481F00F031F808BD0010024010B504006A
:1006300003D5AB2104A001F0E2FCE106C90E0120C4
:1006400088401049086010BD2E2E2F4472697665CF
:1006500072732F53544D3332463078785F48414C93
:100660005F4472697665722F5372632F73746D33B2
:1006700032663078785F68616C5F636F727465783A
:100680002E63000000E100E070B50C460546042929
:1006900003D39B2103A001F0B2FC2146284601F0C0
:1006A000DFF870BD2E2E2F447269766572732F535A
:1006B000544D3332463078785F48414C5F4472691C
:1006C0007665722F5372632F73746D333266307890
:1006D000785F68616C5F636F727465782E63000089
:1006E000F8B50E46050003D16F4970A001F087FCF4
:1006F0002868C10708D1810706D4400704D46A4995
:100700006AA0491C01F07BFC002E06D0012E04D00B
:10071000B721890065A001F072FC72480068C0072B
:10072000C00FB0420AD26F480168490849003143FE
:1007300001600068C007C00FB0426ED128786A4CD3
:1007400080071DD5A868002814D0802812D09028D2
:1007500010D0A0280ED0B0280CD0C0280AD0D028A5
:1007600008D0E02806D0F02804D04F494FA0193116
:1007700001F045FC6068F0218843A9680843606087
:100780002878C0074ED0686800280DD001281ED0F8
:1007900002281FD0444945A0203101F030FC686890
:1007A000012814D0022815D020688007002849DAD3
:1007B000606869688008800008436060FFF7EEFEAB
:1007C0006968074601290ED0022918D026E0206862
:1007D0008003EBE720688001E8E7FFF7DFFEC11B3D
:1007E0004248814217D860680007800F0128F4D181
:1007F00018E0FFF7D3FEC11B3C4881420BD860686C
:100800000007800F0228F4D10CE0FFF7C7FEC11BE0
:100810003648814202D90320F8BD13E06068000722
:10082000800FF2D12F480168C907C90FB1420BD917
:10083000016849084900314301600068C007C00FE2
:10084000B04201D00120E7E7287840071CD50726F1
:10085000E8683602002812D00121890288420ED0B1
:100860000521090288420AD003214902884206D0A4
:10087000B04204D00C490DA0893101F0C0FB606882
:10088000E968B0430843606000F04CF86168184ABA
:100890000906090F515CC840164908600320FFF79C
:1008A0009BFE0020B8E70000DA0200002E2E2F4445
:1008B0007269766572732F53544D333246307878AF
:1008C0005F48414C5F4472697665722F5372632FA3
:1008D00073746D3332663078785F68616C5F726311
:1008E000632E6300002002400010024088130000C5
:1008F000382A0008140000200148006870470000F2
:10090000140000200448054900684968044A490564
:10091000490F515CC840704714000020001002408D
:10092000482A000810B511A30FCB88B06C460FC43D
:1009300012A30FCB0FC415494A680C20134603407D
:100940001348042B0FD0082B0DD193021B0F6C46BC
:10095000E45CC96A04AB0907090FD203595C920F22
:10096000FFF7FEFB604308B010BD00000203040562
:10097000060708090A0B0C0D0E0F101001020304E4
:1009800005060708090A0B0C0D0E0F100010024097
:1009900000127A00FEB5040004D1FF211331F1A04A
:1009A00001F02DFB012720683F040426FB4D0028A1
:1009B0000ED0C1070FD1810768D401077ED441074B
:1009C0007DD4C0067CD4FF211431E6A001F017FBD2
:1009D0002078C00757D06068002808D0012806D0CA
:1009E000052804D0FF211A31DEA001F008FB686859
:1009F0000007800F012818D068680007800F0228C0
:100A000004D16868C003800F02280ED060680128F6
:100A100012D0002801D0052818D02868B8432860D3
:100A2000286801218904884308E0286880032AD5C2
:100A30006068002871D026E0286838432860606824
:100A4000002813D0FFF7AAFD00900BE028680121D1
:100A5000890408432860EFE7FFF7A0FD0099401ADA
:100A600064287DD828688003F6D50CE0FFF796FD52
:100A7000009005E0FFF792FD0099401A6428F0D835
:100A800028688003F6D42078800757D5E0680028CE
:100A900006D0012804D0FF214E31B2A001F0AFFAF8
:100AA00020691F2804D9FF214F31AEA001F0A7FA19
:100AB00068680007800F18D0686802E041E075E0C0
:100AC000E6E00007800F022804D16868C003800FA9
:100AD00001280AD0E068002828681FD001210843B7
:100AE0002860FFF75BFD00900CE0286880070CD5BC
:100AF000E068012811D108E0FFF750FD0099401A85
:100B00000228AED828688007F6D52868F8218843DF
:100B10002169C9000843286010E084E140084000D2
:100B20002860FFF73BFD009005E0FFF737FD0099D7
:100B3000401A022895D828688007F6D42078000744
:100B400031D5E06900281DD0012807D0FF218F3161
:100B500084A001F054FAE069002813D0686A00E02C
:100B6000CAE1012108436862FFF718FD009005E023
:100B7000FFF714FD0099401A0228C2D8686A80075E
:100B8000F6D510E0686A400840006862FFF706FD8D
:100B9000009005E0FFF702FD0099401A0228B0D846
:100BA000686A8007F6D4207840076ED5002001904F
:100BB000A068002808D0012806D0052804D0FF210D
:100BC000BB3168A001F01BFAE869C00009D4E969EB
:100BD000012000070143E961E9690140012000911A
:100BE00001906F480168C90511D40168821511434D
:100BF0000160FFF7D3FC009005E0FFF7CFFC009900
:100C0000401A642896D866480068C005F5D5A068E3
:100C100001280AD0002801D0052811D0286A4008F0
:100C200040002862286AB04302E0286A0121084394
:100C30002862A068002812D0FFF7B0FC00900AE0FC
:100C4000286A30432862F0E7FFF7A8FC0099411AB0
:100C50005448814291D8286A8007F5D50DE0FFF706
:100C60009DFC009006E0FFF799FC0099411A4D4861
:100C7000814294D8286A8007F5D40198002804D0CE
:100C8000E969012000078143E9612078C00648D561
:100C90006069002808D0012806D0401D04D0012139
:100CA000490230A001F0ABF9A0691F2803D93E49E1
:100CB0002CA001F0A4F9606901280CD0401D686BDC
:100CC00024D030436863686B400840006863FFF7D6
:100CD00065FC064622E0686B30436863686B01215F
:100CE00008436863FFF75AFC064604E0FFF756FC2A
:100CF000801B022886D8686B8007F7D5686BF821BF
:100D00008843A169C900084368630AE0B043686387
:100D1000F4E7FFF743FC801B02289BD8686B800731
:100D2000F7D4206A00287DD0012809D0022807D0F6
:100D30009D2189000BA001F062F9206A002871D082
:100D400068680007800F02286DD00126206A3606E9
:100D500002282BD02868B0432860FFF71FFC044608
:100D6000CCE000002E2E2F447269766572732F53EB
:100D7000544D3332463078785F48414C5F44726955
:100D80007665722F5372632F73746D3332663078C9
:100D9000785F68616C5F7263632E630000100240CD
:100DA0000070004088130000010200000121606A09
:100DB000C903884205D0B84203D05449544801F0D1
:100DC0001EF9A06A00283ED00121890488423AD049
:100DD0004900884237D003218904884233D0012159
:100DE000090588422FD00521890488422BD0032190
:100DF000C904884227D007218904884223D00121D1
:100E0000490588421FD00921890488421BD0052149
:100E1000C904884217D00B218904884213D00321CA
:100E2000090501E06DE06EE088420CD00D218904D7
:100E3000884208D00721C904884204D03349344885
:100E4000491C01F0DCF8E06A002822D0012820D0FB
:100E500002281ED003281CD004281AD0052818D038
:100E6000062816D0072814D0082812D0092810D038
:100E70000A280ED00B280CD00C280AD00D2808D038
:100E80000E2806D00F2804D020492148891C01F0E3
:100E9000B6F82868B0432860FFF780FB074604E0F7
:100EA000FFF77CFBC01B022826D828688001F7D4F6
:100EB000E86AE16A000900010843E862616AA06A21
:100EC000084369687B22D20391430843686028681D
:100ED00030432860FFF762FB044604E0FFF75EFB47
:100EE000001B022808D828688001F7D509E0FFF721
:100EF00055FB001B022801D90320FEBD2868800194
:100F0000F5D40020FEBD0120FEBD00007D020000E2
:100F1000640D0008F8B504007ED088492068884236
:100F200007D08749884204D0FF21253185A001F0F0
:100F300066F86068002807D0C11FFD3904D0FF2182
:100F4000263180A001F05BF80126A068B6020028D7
:100F500009D0B04207D07101884204D0FF21273167
:100F600078A001F04CF80F210725E06809022D0256
:100F700088422FD0690088422CD00D210902884276
:100F800028D003218902884224D00B2109028842FB
:100F900020D00521490288421CD00921090288423B
:100FA00018D00121C902884214D0A84212D00321CE
:100FB000490288420ED00521090288420AD0B04277
:100FC00008D003210902884204D0FF2128315DA006
:100FD00001F015F8A069C11FFF39FA390AD00028BD
:100FE00008D001218904884204D0FF21293155A06D
:100FF00001F005F8606B082806D0002804D0FF2116
:101000002A3150A000F0FBFFE069002814D0082826
:1010100012D0102810D000E026E018280CD020288C
:101020000AD0282808D0302806D0382804D0FF213C
:101030002B3144A000F0E3FF206A002806D080286E
:1010400004D0FF212C313FA000F0D9FF606A0028B6
:101050000CD010281ED0FF212D313AA000F0CFFF78
:10106000606A002802D015E00120F8BD2069002840
:1010700006D0022804D0FF21303132A000F0BFFF9B
:101080006069002806D0012804D0FF2131312DA04D
:1010900000F0B5FF002726464036A762707F002883
:1010A00003D13777204600F069F802227277206872
:1010B0000168402399430160E068A84201D90021FA
:1010C00001E0012109030F231B02984202D0A8422C
:1010D00000D0A762236B002B05D1A84201D922635F
:1010E00001E001202063A2686068636910432269FF
:1010F0001A4310430123A2695B021A401043E269BC
:101100001043226A1043A26A104322681060626B87
:10111000606AA36910431B0C0425E2682B401A4344
:1011200010430843216848602068C26969028A4305
:10113000C2612766012070770020F8BD00300140B1
:10114000003800402E2E2F447269766572732F533B
:10115000544D3332463078785F48414C5F44726971
:101160007665722F5372632F73746D3332663078E5
:10117000785F68616C5F7370692E6300F0B587B04B
:10118000044614216846FFF71AF82049206888426F
:1011900039D11F48C26909140A43C261C2690A40B1
:1011A0000592426949010A43426142690A40059237
:1011B000426949100A43426140690225084005908E
:1011C0000C20009001200024032604900396019532
:1011D000029469460F48FFF76BF8680200900520FB
:1011E0000D4F049003960195029469463846FFF727
:1011F0005FF8E80200900294694603960195049412
:101200003846FFF755F807B0F0BD00000038004041
:10121000001002400008004800040048094910B5C9
:10122000401E884201D9012010BD074C6061032196
:10123000081F00F015FB0020A0610720206100209E
:1012400010BD0000FFFFFF0000E000E0704700005D
:10125000F8B503680446D96918680D072D0F07D142
:101260008A0605D5820603D5204600F0D2FCF8BDDB
:101270009A68002D64D0D507ED0FFF262136064071
:101280002E435DD0CE0706D0C60504D501261E62CA
:10129000E36E3343E3668F0702230426002F06DA4A
:1012A000D70704D027683B62E76E3743E7664F07EE
:1012B00006D5D20704D022681662E26E1A43E266AF
:1012C0000A0709D5202202402A4305D023680822B4
:1012D0001A62E36E1343E366E26E002AC7D0890602
:1012E00004D5800602D5204600F093FCE06E00078E
:1012F00003D42068806840061CD5204600F06DFCB1
:1013000020688168490611D5816840229143816037
:10131000606E00280AD012494163606EFEF7A4FF98
:101320000028A4D0606E416B8847F8BD2046FFF7C7
:101330008DFFF8BD2046FFF789FF0020E066F8BD6D
:101340000A0605D5020603D5204600F0D9FDF8BDF2
:101350004906FCD54006FAD5204600F04DFCF8BD04
:10136000C71B000870B5040012D0A0692A490028E4
:101370002A4A2B4B2B4D20680CD088421DD090421E
:101380001BD0984219D0A84217D0FF212F3111E06D
:10139000012070BD884210D090420ED098420CD0EF
:1013A000A8420AD02049884207D02049884204D068
:1013B000FF2134311EA000F022FE25466035687AF8
:1013C000002803D12872204600F050F824206872CB
:1013D00020680168490849000160204600F056FC79
:1013E0000128D6D0606A002802D0204600F0DEFA3C
:1013F000206841680122D2029143416020688168DF
:101400000822914381602068016801221143016034
:10141000204600F0CFFB70BD003801400044004082
:1014200000480040004C00400050004000140140C3
:101430002E2E2F447269766572732F53544D3332BA
:10144000463078785F48414C5F4472697665722F08
:101450005372632F73746D3332663078785F6861CE
:101460006C5F756172742E6300000000F0B587B088
:10147000044614216846FEF7A2FE26681F4F012489
:1014800000251F49E404022303221E48BE4214D152
:10149000CF69C6013743CF61CF69374005974E69A1
:1014A00026434E6149696E462140059130210392E1
:1014B0002AC601210491694613E0134FBE421AD196
:1014C0008F69202637438F618F69374005974E69B2
:1014D00026434E6149696E46214005912CC60CC6D3
:1014E0006946FEF7E5FE002203211D20FFF7CCF838
:1014F0001D20FFF79BF807B0F0BD0000004800403A
:10150000001002400008004800140140F0B50346F6
:1015100060339C7A202C44D100290BD0002A09D0BA
:10152000012584682D03AC4206D10669002E03D143
:10153000CE0701D00120F0BD1E7A012E31D0012648
:101540001E724165014640310A834A83FF27AC423F
:1015500004D10269002A12D1134A0EE07F22002C26
:1015600008D001252D07AC420AD10469002C04D013
:101570003F2202E00469002C01D08A8300E08F83BF
:101580000021C16622229A72197201688A68324368
:101590008A6000680168FF22213211430160002047
:1015A000F0BD0220F0BD0000FF01000070B505464F
:1015B00000681349134C88420BD113482146007828
:1015C000207003206070022308461A46C83000F0DD
:1015D00021F80E492868884211D10B486423401C29
:1015E000007820700620607002220649084800F04A
:1015F00011F805490122491C0548FFF787FF70BD16
:10160000004800407000002000000020001401404D
:10161000A8010020FFB5064604466036707A83B004
:101620000D46202858D1002D0CD00598002809D04F
:101630000120A1680003814207D12069002804D15C
:10164000E80702D0012007B0F0BD307A012843D06E
:10165000012030720020E06621207072FEF79EFFAC
:10166000019027464037059838820598788218E01F
:10167000788A401E788206980090002280212046B9
:10168000019B00F070FC002818D10120A168000324
:10169000814202D12069002812D02168287808856B
:1016A0006D1C788A0028E3D1069800900022402122
:1016B0002046019B00F057FC002808D00320C2E719
:1016C00028882168C005C00D0885AD1CE9E72020E9
:1016D000707200203072B6E70220B4E77047FEE770
:1016E000F0B587B014216846FEF769FD35484269B8
:1016F0000121C9040A43426142690A4005924269D4
:10170000C9000A43426142690A400592426949118F
:101710000A43426142690A400592426949000A430C
:10172000426142690A400592426989000A43426166
:1017300040690926084036020590002231462248B9
:10174000FEF7F6FE0F27BF01002239461F48FEF7BD
:10175000EFFE3F208002032400256A4631C269461D
:101760001A48FEF7A5FD00946946194802950194B0
:10177000FEF79EFD17486A4631C26946F004FEF73F
:1017800097FD15486A4631C269460F48FEF790FD3D
:1017900000960126029569460B4801960395FEF7CF
:1017A00087FD029569460948009701960395FEF763
:1017B0007FFD04206A4631C269460848FEF778FD7D
:1017C00007B0F0BD001002400004004800080048C7
:1017D00000140048FF9F0000FFE20000000C0048DA
:1017E00010B50F480D490160FF210531416000210E
:1017F0000722816012020161C260012241619204EC
:101800008261016218224162C26181620722C26262
:10181000016308214163FFF77DFB10BD00380040E4
:10182000D400002010B50C480A4901604B21C901C1
:10183000416000218160C160016181610C22C16150
:10184000426101628021416209038164FFF78AFDE0
:1018500010BD000000480040380100207047000023
:101860008307FF22DB0E9A408907090E9940002862
:101870000BDA0007000F0838830808489B00181887
:10188000C36993430B43C3617047830804489B00BB
:101890001B181868904308431860704700ED00E07B
:1018A00000E400E0704700000A4610B501466423DA
:1018B0000148FFF7AFFE10BDA80100207D242401E0
:1018C000204600F0F5FBFEF797FCF9E7FF25094CF1
:1018D0000135642000F0ECFB012229462046FEF78A
:1018E00027FE642000F0E4FB002229462046FEF794
:1018F0001FFEEEE70004004810B5FEF755FE00F0AD
:10190000EAFB10BD30B591B030216846FEF757FCB8
:1019100000240D94012003900E94102002250490C1
:10192000C002009509900F9440010A900C9408950C
:101930000B946846FFF72EF807200C900E940121B7
:101940000D950F940CA8FEF7CBFE11B030BD000032
:10195000134801680122114301604168114A114096
:1019600041600168104A114001600168012292043F
:101970009143016041683F22120491434160C16A72
:1019800009090901C162016BFF221432914301630D
:10199000416B4908490041630021816070470000A4
:1019A000001002400CB8FF08FFFFF6FE70B50446B9
:1019B000406AFF2803D96C496CA000F020FBA08C82
:1019C000C00711D00125A06A6D04002806D0A842E6
:1019D00004D0654965A0491D00F011FB21684868E5
:1019E000A26AA84310434860A08C800711D5012546
:1019F000E06A2D04002806D0A84204D05A495BA012
:101A00000C3100F0FCFA20684168E26AA9431143F6
:101A10004160A08C400711D50125206BAD04002842
:101A200006D0A84204D0504950A0133100F0E7FA84
:101A300021684868226BA84310434860A08C0007C7
:101A400011D50125606BED03002806D0A84204D013
:101A5000454946A01A3100F0D2FA21684868626B05
:101A6000A84310434860A08CC00611D50125A06B87
:101A70002D03002806D0A84204D03B493BA02131C9
:101A800000F0BDFA21688868A26BA8431043886003
:101A9000A08C800611D50125E06B6D03002806D0CF
:101AA000A84204D0304931A0283100F0A8FA2068BB
:101AB0008168E26BA94311438160A08C40063CD54C
:101AC0003949206888420AD03849884207D03849C5
:101AD000884204D0244925A02F3100F090FA012536
:101AE000206C2D05002806D0A84204D01E491FA056
:101AF000303100F084FA20684168226CA943114318
:101B00004160206CA84218D10325606C6D05002847
:101B10000DD001214905884209D04900884206D0EC
:101B2000A84204D0104911A0353100F068FA2068AD
:101B30004168626CA94311434160A08C000611D535
:101B40000125A06CED04002806D0A84204D0064967
:101B500006A03D3100F053FA21684868A26CA84302
:101B60001043486070BD0000A90800002E2E2F44CD
:101B70007269766572732F53544D333246307878DC
:101B80005F48414C5F4472697665722F5372632FD0
:101B900073746D3332663078785F68616C5F75613D
:101BA00072742E63000000000038014000440040C1
:101BB000004800400021C1662022603042728272DB
:101BC00001720846704710B5406A00220146403154
:101BD0004A834A82FFF73AFB10BD01680A68FF2377
:101BE00021339A430A6001688A68520852008A6069
:101BF000202160308172704710B501680A68402367
:101C00009A430A60202269210A54FFF767FD0020E9
:101C100010BD70B50246403203466033948B9D7A06
:101C20000168222D05D088690822104388610220AE
:101C300070BD898C012685683603B54202D10569DD
:101C4000002D0BD02140446D651C45652170518BE2
:101C5000491E0904090C518307D015E0456D214048
:101C60002980416D891C4165F1E701680A68FF24FC
:101C70002134A2430A6001688A68520852008A60CF
:101C800020219972FFF792FC002070BDF8B5002763
:101C90000446009740687F491025884203D37E4957
:101CA0007EA000F0ACF90121A0680907884209D0A4
:101CB000002807D00914884204D0774977A0491C2E
:101CC00000F09DF9E068002808D00121490388420E
:101CD00004D0714971A0891C00F091F92069002895
:101CE0000CD001218902884208D003214902884290
:101CF00004D0694969A0C91C00F081F960690C220F
:101D00000146914301D1002804D1634963A0091D14
:101D100000F075F9A06900280ED0C11FF9390BD069
:101D2000FF39013908D003210902884204D05A49F9
:101D30005AA0491D00F063F9206A002808D001214B
:101D4000C902884204D0544954A0891D00F057F9B3
:101D5000E069002808D00121C903884204D04E4917
:101D60004EA0C91D00F04BF92169A068E269084343
:101D700061691143226808431168574B19400143B8
:101D8000116021684868032212039043E2681043FF
:101D90004860216AA0692268084391680B231B02EE
:101DA0009943014391604D482668864210D14C48C2
:101DB000006B8007800F1AD0012805D0022805D0BB
:101DC000032815D1022513E0042511E008250FE0B2
:101DD000444886420BD04448864208D04348864255
:101DE00005D04348864202D04248864200D10025B1
:101DF0000120E169C003814225D1002D0DD0022DC3
:101E00000ED0042D14D0082D18D0012000903909CF
:101E100009013807400F084331E0FEF773FD09E080
:101E20006168354A48088018FEF79AF987B2EEE7EC
:101E3000FEF778FD616840004A08F4E76168012216
:101E400048081204EFE7002D09D0022D0AD0042D16
:101E50000DD0082D16D0012000900098F8BDFEF797
:101E600051FD06E06168254A480880180DE0FEF73C
:101E700059FD61684A088018FEF772F980B221683E
:101E8000C860EAE761684A081018FEF769F980B28D
:101E9000F060E2E7818D5B00460800002E2E2F44A3
:101EA0007269766572732F53544D333246307878A9
:101EB0005F48414C5F4472697665722F5372632F9D
:101EC00073746D3332663078785F68616C5F75610A
:101ED00072742E6300000000F369FFEF00380140C8
:101EE000001002400044004000480040004C004008
:101EF00000500040001401400024F40000127A0059
:101F00006921095C212901D0022070470246403234
:101F1000518A002912D0012381681B03994202D102
:101F20000169002915D0C16C4B1CC3640068097895
:101F30000185508A401E50820020704701680A685F
:101F400080239A430A6000680168402211430160BF
:101F5000F2E7C16C03680988C905C90D1985C16C10
:101F6000891CC164E5E7FFB581B017460E460446FB
:101F70000A9D1DE0681C1BD0002D05D0FEF70EFB4E
:101F80000499401AA84213D920680168FF22A1329F
:101F900091430160206881684908490081602020E0
:101FA00060346072A07200202072032005B0F0BD82
:101FB0002068C1693046884304D00020B842D9D097
:101FC0000020F3E70120F9E710B50348FFF740F9D7
:101FD0000248FFF73DF910BD38010020A80100209C
:101FE00002E008C8121F08C1002AFAD170477047E2
:101FF000002001E001C1121F002AFBD17047704789
:102000008CB0FEF7D9FAFFF77DFCFFF769FBFFF70D
:1020100009FC21481F490160002282604B21C260F7
:10202000C901026141600C2182614161FFF79AF9A7
:10203000FFF7D6FB1848012218497038FFF766FAF7
:1020400016490122491C1448FFF760FA142214496A
:102050006846FEF79BF80021684600F044F80F4CF4
:102060000F4960601422143105A8FEF78FF8002193
:1020700005A800F038F80A49A060083903C90B9197
:102080000A9000210AA800F020F8E06000F018F89B
:10209000FEE7000000140140A8010020000000201D
:1020A000102A000801460020842900D0C81C70476F
:1020B00010B5002800D1012000F098FA002010BDD2
:1020C00010B500F0ABFA002010BD10B503C8002217
:1020D00000F028FB10BD10B500F0A0FB012801D0D6
:1020E00000F00EFB10BD3EB5044608200D46205EF4
:1020F000FFF7D8FF02A901910090208A2B4682B2F7
:102100002168606800F063FB012801D000203EBD1B
:1021100002983EBDF8B5134C0F46E66805462068A8
:10212000001D00F0C5F9681C07D1002F05D02168FB
:102130000D48091D00F0F4F9F8BD206875194560D7
:102140002168B54204D2A06B091D00F0D1F9F8BD99
:10215000606B091D00F0CCF9A06A8542F7D2A56238
:10216000F8BD00001800002058030020F8B505460F
:1021700000F0E2F9294CA068401CA0602068284FBC
:10218000002803D06069002827D02CE02560A068D3
:10219000012828D1002614207043C01900F09AF9B4
:1021A000761C072EF7D31E488C3000F093F91C489C
:1021B000A03000F08FF91A48B43000F08BF91848BD
:1021C000C83000F087F91648DC3000F083F9144875
:1021D0008C3060631430A06305E02068E96AC06A4F
:1021E000884200D82560606A401C6062E86A216904
:1021F000884200D9206114214843C019291D00F0EC
:102200008FF900F0A5F96069002806D02068E96A16
:10221000C06A884201D200F0DDF9F8BD1800002044
:102220007C02002070B5114E114C18E000F01CFA31
:102230003068002817D000F091FB00F07DF9F068BD
:10224000C568281D00F034F9A068401EA0606068D1
:10225000401E606000F07CF9284600F00BF86068D2
:102260000028E3D170BD00F079FBF8E744030020BB
:102270001800002010B50446006B00F077F92046E6
:1022800000F074F910BD000003210E4889024207D6
:1022900005D0C01DC0080B4AC000821A891A0A4A1C
:1022A0000023411809C20839C908C900183A116049
:1022B0004B600B600B1A0AC093600120C00753608B
:1022C000D06070476C03002064000020044CFFF7CE
:1022D000A9FF20680128FAD900F07CF9F7E700008F
:1022E0007C020020FFB581B00C9C9000236B001F86
:1022F0001818C6080A9DF600700701D072B6FEE7EE
:1023000023180A5C20331A750A5C002A02D0401C8C
:102310001028F5D32046403000270090C770072DC5
:1023200000D30625E562A764201D656400F0DDF892
:102330002046183000F0D9F824610720401B646261
:10234000A061E764009807743046049A019900F090
:102350009FF820600B98002800D0046005B0F0BD05
:1023600030B5114900E011460A688242FBD34B6840
:102370005C18844203D140681818486008464368D6
:102380001C18944209D1084C103C2468A24209D080
:1023900052689A1842600A6812680260814200D04E
:1023A000086030BD0460F9E7640000200648416B16
:1023B0000968002905D0416BC968C968496881620C
:1023C00070470021C943FAE718000020034800685D
:1023D000401C72B600D0FEE7FEE700006C00002053
:1023E000F8B50546002700F03FF9284E3068002870
:1023F00001D1FFF749FFF06805423FD1002D3DD0E4
:102400000835680708D06807400F0821081A4519E1
:10241000680701D072B6FEE7002D2FD070688542A4
:102420002CD81A48103001460C6801E020460C46B2
:102430006168A94202D221680029F7D131688C4233
:102440001CD007682168016060680837411B1029AB
:1024500008D96019420701D072B6FEE74160656095
:10246000FFF77EFF61687068401A7060B268904242
:1024700000D2B060F0680143002003C400F06EFA9F
:10248000780701D072B6FEE73846F8BD5400002048
:1024900010B50124031F24061C601B1F1960191F9F
:1024A000024B0B60143940380A6010BDCD23000880
:1024B0004368826801699A60836842685A604A6822
:1024C000824201D182684A60002202610868401E8F
:1024D000086070470146083100224160D243C16064
:1024E0008260016100210160704700210161704735
:1024F00030B50B685A1C02D00246083202E002696D
:1025000004E02246546825689D42FAD953684B601E
:1025100099608A60516008610168491C016030BDA2
:1025200042684A6093688B60936859609160086163
:102530000168491C0160704772B604480168491C73
:10254000BFF34F8FBFF36F8F016070476C000020A7
:1025500005490868002804D0401E086000D162B612
:10256000704772B6FEE700006C00002070B50028CE
:102570001AD004460D4D083C6068E968084201D154
:1025800072B6FEE72268002A01D072B6FEE78843E1
:10259000606000F069F8606869684018686020460B
:1025A000FFF7DEFE00F0DAF970BD000054000020F5
:1025B00010B506487D21C9000068FDF7D1FD04492A
:1025C000401E48610720086110BD00001400002073
:1025D00000E000E00120044900074860BFF34F8F8E
:1025E000BFF36F8F7047000000ED00E010B50200F0
:1025F0000FD00948006B002801D072B6FEE700F04A
:1026000033F800211046FFF785FD00F0A7F90028F8
:1026100001D1FFF7DFFF10BD180000201CB50E48E8
:1026200000240190234680220CA100940D4800F064
:10263000CEF8012803D0401C0CD172B6FEE772B66A
:1026400000210548C9432C38816201214161C460E1
:1026500000F03EF81CBD00004400002049444C45F9
:1026600000000000CD2200080248016B491C0163F4
:10267000704700001800002010B51348016B0029B6
:1026800002D00121C16110BD0021C16101690F4A61
:1026900002E0002915D0491E14234B43D358002BC8
:1026A000F7D014234B439A18536814465B680834D8
:1026B0005360A34201D15B685360DA680260016134
:1026C00010BD72B6FEE70000180000207C0200205A
:1026D00010B50948016AFF22120411430162016A20
:1026E000120211430162FFF763FF044900200860F2
:1026F000FDF7ECFC002010BD00ED00E06C000020B8
:1027000010B5FDF7F7FC044600F098F8002803D058
:1027100001200349000748602046FDF7EFFC10BD8B
:1027200000ED00E070B50E46050014D0002E14D068
:1027300070434830FFF754FE04000AD02146483168
:102740002046002E0BD0016006640121C56300F015
:1027500008F8204670BD72B6FEE70020E9E7006089
:10276000F2E770B50D46040025D0FFF7E5FE216CB9
:10277000E06B48432168411861600021A163216832
:10278000A160E06B216C401E484321684118E16064
:102790000021C94320464030017141713038002D7D
:1027A0000BD0FFF797FE20462430FFF793FEFFF78C
:1027B000CFFE012070BD72B6FEE721690029F6D078
:1027C00000F09AF80028F2D0FFF704FFEFE7FFB51A
:1027D00085B0164690000F9FFFF702FE05001AD045
:1027E0005420FFF7FDFD040012D0256300210E9850
:1027F00003910197009002943246089B0699059830
:10280000FFF770FD2046FFF7B1FC012009B0F0BDD5
:102810002846FFF7ABFE0020C043F7E706484169B2
:10282000002904D0006B002803D00020704701204D
:10283000704702207047000018000020F8B52C4CAB
:102840000027206B002808D0A069401CA061E06927
:10285000002800D001273846F8BDE668761CE660FF
:102860000ED1606B0068002801D072B6FEE7606B85
:10287000A16B6163A063206A401C2062FFF796FD94
:10288000A06A86420AD3606B0068002810D0606B93
:10289000C068C568686886420DD2A06220681421AD
:1028A000C06A4843134908580128D0D90127CEE708
:1028B0000020C043F1E7281DFFF7FAFDA86A0028B1
:1028C00003D028461830FFF7F3FDE86A21698842F3
:1028D00000D920611421484306494018291DFFF7FB
:1028E0001FFEE86A2168C96A8842CCD30127CAE77B
:1028F000180000207C02002070B5C068C468002C5D
:102900000BD0204618300646FFF7D2FD114D286B3C
:10291000002804D0314610480FE072B6FEE7201DB3
:10292000FFF7C6FDE06A2969884200D928611421B1
:1029300048430949B4394018211DFFF7F1FDE06A09
:102940002968C96A884202D90120E86170BD002067
:1029500070BD00001800002030030020F8B5284C9E
:102960000025206B2E46002808D0FFF7E5FD206BE0
:10297000401E2063206B002802D03DE072B6FEE7C7
:10298000A168204F00291DD136E0F868C5682846A7
:102990001830FFF78DFD281DFFF78AFDE86A2169D1
:1029A000884200D92061142148431649B43940189F
:1029B000291DFFF7B5FDE86A2168C96A884201D37D
:1029C0000120E06138680028DFD1002D01D0FFF739
:1029D000EDFCA569002D09D00127FFF72FFF002886
:1029E00000D0E7616D1EF8D10020A061E0690028E9
:1029F00002D00126FFF7EEFDFFF7AAFD3046F8BD35
:102A00001800002030030020200000000200000019
:102A1000602A0008CD180008FEFF0000000000003A
:102A200080000000502A0008BD18000800000000C7
:102A30000000000080000000000000000000000016
:102A40000102030406070809000000000102030454
:102A50006D794153363830315461736B000000009A
:102A600064656661756C744C45445461736B000019
:102A7000902A00080000002070000000E01F0008FD
:102A8000002B00087000002000130000F01F000859
:102A90000000000000000000000000000000000036
:102AA0000000000000127A0000000000000000009A
:102AB0000000000000000000000000000000000016
:102AC0000000000000000000000000000000000006
:102AD00000000000000000000000000000000000F6
:102AE00000000000000000000000000000000000E6
:102AF000000000000000000000000000AAAAAAAA2E
:04000005080000B936
:00000001FF
