:020000040800F2
:1000000098120020CD000008251500083D130008B7
:1000100000000000000000000000000000000000E0
:100020000000000000000000000000000D2000089B
:1000300000000000000000000B2000080F20000856
:10004000DF00000800000000DF000008DF000008FB
:10005000DF000008DF000008DF000008DF00000804
:1000600000000000DF000008DF000008DF000008DB
:10007000DF000008DF000008DF00000800000000CB
:10008000DF000008DF000008DF000008DF000008D4
:10009000DF000008DF000008DF000008DF000008C4
:1000A000DF000008DF000008DF000008DF000008B4
:1000B000DF000008DF0000080348854600F0D6F89E
:1000C000004800473121000898120020044880476A
:1000D00004480047FEE7FEE7FEE7FEE7FEE7FEE72F
:1000E00079200008B9000008EFF3108072B670475D
:1000F00080F31088704741488047454801210170CE
:10010000454801680A6882F30888FFBC8046894632
:1001100092469B4604B00FBC84468E4683F3038808
:1001200004B487B00FBC03B062B600BD72B684B031
:100130000FB408B0EFF303837246714660460FB404
:1001400084B04046494652465B46FFB4EFF3088010
:10015000304909680860294880472B482B490A78AC
:1001600002702C482C490A680260106880F30888E5
:10017000FFBC8046894692469B4604B00FBC84462D
:100180008E4683F3038804B487B00FBC03B062B615
:1001900000BD00BF72B684B00FB408B0EFF30383A4
:1001A0007246714660460FB484B040464946524696
:1001B0005B46FFB4EFF308801649096808600F48F2
:1001C0008047114811490A780270124812490A689A
:1001D0000260106880F30888FFBC8046894692461A
:1001E0009B4604B00FBC84468E4683F3038804B458
:1001F00087B00FBC03B062B600BD00BF5D1A000837
:10020000C915000815000020170000201800002064
:1002100022000020280000203000002030B50B46CE
:10022000014600202022012409E00D46D5409D42D0
:1002300005D31D469540491B254695404019154656
:10024000521E002DF1DC30BDD2B201E00270401C24
:10025000491EFBD270470022F6E710B513460A4646
:1002600004461946FFF7F0FF204610BD064C012555
:10027000064E05E0E36807CC2B430C3C984710344E
:10028000B442F7D3FFF71CFF80220008A022000829
:1002900000BF00BFFF20F53001F038FF0022FF2132
:1002A0000131084800F0BAF9FF20F53001F02EFFC7
:1002B00001221102034800F0B1F9FF20F53001F0EE
:1002C00025FFE7E70004004870470000FEB506463A
:1002D0000C4600270020019000250920C006864218
:1002E0000BD0B248864208D0B148864205D0B1480A
:1002F000864202D0B048864200D103E0C121AFA0BF
:1003000001F003FF208880B2002805D02068000C8F
:100310000004002800D103E0C221A8A001F0F5FEEE
:100320006068002826D06068012823D06068112802
:1003300020D0606802281DD0606812281AD0AE490B
:100340006068884216D0AD496068884212D0AC49D6
:10035000606888420ED0AB49606888420AD0AA49DA
:100360006068884206D0A9496068884202D0606807
:10037000032800D103E0C32190A001F0C6FEA068CD
:10038000002805D0A068012802D0A068022800D16A
:1003900003E0C42189A001F0B8FE01E10121B940C8
:1003A000206808400190019800287DD060680228EC
:1003B00002D06068122829D10920C006864202D0E6
:1003C0007A48864200D103E0D3217CA001F09DFE53
:1003D0002069062800D803E0D42178A001F095FE1A
:1003E000F80881003046203045587807C10E0F20AC
:1003F0008840294681430D467907C90E2069884007
:100400000543F808810030462030455035687900B2
:1004100003208840294681430D4620798007800FBC
:1004200079008840054335606068012808D060681D
:10043000022805D06068112802D06068122826D1F1
:10044000E068002805D0E068012802D0E0680328B1
:1004500000D103E0E82159A001F057FEB56879000A
:1004600003208840294681430D467900E068884092
:100470000543B56075680120B840294681430D46A3
:100480001021606808400009B84005437560F568B0
:10049000790003208840294681430D467900A068F1
:1004A00088400543F56000E079E0012109076068B4
:1004B0000840884273D100BF554880690121084334
:1004C0005349886108468069C007C00F009000BF8B
:1004D00000BF5048B90889004558B807010F0F20E0
:1004E0008840294681430D460920C006864201D135
:1004F00000200FE02D48864201D101200AE02C485F
:10050000864201D1022005E02A48864201D103201B
:1005100000E00520B907090F884005433D48B908A8
:10052000890045503C4805682946019881430D469D
:100530000121090460680840884201D101980543FF
:100540003548056045682946019881430D460121DB
:10055000490460680840884201D1019805432E484B
:10056000456085682946019881430D4601210905AA
:1005700060680840884201D101980543264885609B
:10058000C5682946019881430D46012149056068E7
:100590000840884201D1019805431F48C5607F1C6F
:1005A0002068F840002800D0F8E6FEBD00040048AE
:1005B00000080048000C0048001400482E2E2F446C
:1005C0007269766572732F53544D333246307878A2
:1005D0005F48414C5F4472697665722F5372632F96
:1005E00073746D3332663078785F68616C5F677002
:1005F000696F2E6300000000000011100000211040
:100600000000311000001210000022100000321013
:1006100000100240080001400004014070B5064689
:100620000C461546A0B2002804D0200C0004002877
:1006300000D104E0FF21AD3109A001F066FD002DDD
:1006400001D0012D00D104E0FF21AE3104A001F062
:100650005CFD002D01D0B46100E0B46270BD00000B
:100660002E2E2F447269766572732F53544D333298
:10067000463078785F48414C5F4472697665722FE6
:100680005372632F73746D3332663078785F6861AC
:100690006C5F6770696F2E6300000000014800689E
:1006A000704700004000002002480068401C0149DB
:1006B000086070474000002010B50648006810210F
:1006C000084304490860002000F006F800F018F81C
:1006D000002010BD0020024070B5044600F0B8F9BB
:1006E00006467D21C900FFF799FD054600F00AFE88
:1006F00000222146501E00F023F8002070BD0000AB
:1007000008B500BF0D488069012108430B49886185
:1007100008468069C007C00F009000BF00BF00BF3F
:100720000846C069090408430449C8610846C0690D
:1007300009040840009000BF00BF08BD001002403F
:1007400070B505460C461646042C00D203E09B21EA
:1007500003A001F0DAFC2146284600F0E5FE70BD5A
:100760002E2E2F447269766572732F53544D333297
:10077000463078785F48414C5F4472697665722FE5
:100780005372632F73746D3332663078785F6861AB
:100790006C5F636F727465782E63000070B50446F9
:1007A0000D460026002C00D003E0954995A001F0ED
:1007B000ACFC2078C007C00F002809D102212068B6
:1007C0000840022804D0042120680840042800D1F1
:1007D00004E08B49491C8BA001F097FC002D01D04F
:1007E000012D00D104E0B721890086A001F08DFC25
:1007F00092480068C007C00FA8420ED28F48006818
:100800004008400028438D49086008460068C0073A
:10081000C00FA84201D0012070BD0221206808400D
:10082000022828D1A068002817D0A068802814D0FA
:10083000A068902811D0A068A0280ED0A068B02889
:100840000BD0A068C02808D0A068D02805D0A06828
:10085000E02802D0A068F02800D104E068491931EE
:1008600068A001F052FC76484068F0218843A168F6
:100870000843734948602078C007C00F00286ED035
:100880006068002805D06068012802D060680228EE
:1008900000D104E05A4920315AA001F036FC6068CA
:1008A000012808D166480068012149040840002851
:1008B00015D10120B0E76068022808D160480068BF
:1008C000012149060840002809D10120A4E75C481D
:1008D000006802210840002801D101209CE7584807
:1008E0004068800880006168084355494860FFF708
:1008F000D5FE0646606801280FD107E0FFF7CEFE5F
:10090000801B5049884201D9032085E74C48406844
:100910000C2108400428F1D121E0606802280FD1A1
:1009200007E0FFF7BBFE801B4649884201D9032040
:1009300072E7434840680C2108400828F1D10EE0D6
:1009400007E0FFF7ABFE801B3E49884201D9032038
:1009500062E73B4840680C2108400028F1D1374845
:100960000068C007C00FA8420ED93448006840088C
:10097000400028433149086008460068C007C00F9E
:10098000A84201D0012047E704212068084004283C
:1009900024D1E068002812D00902E06888420ED015
:1009A00005210902E068884209D003214902E06874
:1009B000884204D007210902E068884200D104E09F
:1009C0000F4989310FA001F0A0FB1D4840680721A5
:1009D00009028843E16808431949486000F03EF87D
:1009E00017494968F02211400909174A515CC8406B
:1009F000164908600020FFF76FFE00200CE700009A
:100A0000DA0200002E2E2F447269766572732F531E
:100A1000544D3332463078785F48414C5F447269B8
:100A20007665722F5372632F73746D33326630782C
:100A3000785F68616C5F7263632E63000020024020
:100A400000100240881300006822000844000020C3
:100A5000014800687047000044000020F0B589B0EC
:100A600025A001460EC9C06805AC0EC4089026A09A
:100A700001460EC9C06801AC0EC4049000240026D3
:100A80000027002500200090234844680C202040C7
:100A900000282AD0042802D0082825D102E01F48C7
:100AA000009025E00F2080042040800C05A90D5CFB
:100AB0001948C06A0007000F01A90E5C0320C0039B
:100AC000204001210904884206D131461348FFF72E
:100AD000A5FB6843074605E031461048FFF79EFB3B
:100AE00068430746009703E000BF0C48009000BF32
:100AF00000BF009809B0F0BD02030405060708090D
:100B00000A0B0C0D0E0F1010010203040506070856
:100B1000090A0B0C0D0E0F100010024000127A0093
:100B2000F8B504460025002C00D004E0FF21133165
:100B3000F9A001F0EAFA2068002818D02078C00750
:100B4000C00F002813D102212068084002280ED0CF
:100B5000082120680840082809D00421206808409E
:100B6000042804D0102120680840102800D104E097
:100B7000FF211431E8A001F0C8FA2078C007C00FA7
:100B8000002873D06068002805D06068012802D072
:100B90006068052800D104E0FF211A31DEA001F0D1
:100BA000B4FAEB4840680C21084004280CD0E8480F
:100BB00040680840082813D1E548406849030840C8
:100BC0000121090488420BD1E14800680121490450
:100BD000084000286CD06068002869D10120F8BD69
:100BE00000BF6068012807D1D948006801210904C5
:100BF0000843D749086031E0606800280ED1D44826
:100C00000068012109048843D1490860084600684A
:100C1000012189048843CE4908601FE060680528E7
:100C20000ED1CB480068012189040843C8490860F7
:100C300008460068012109040843C54908600DE021
:100C4000C3480068012109048843C1490860084677
:100C50000068012189048843BD49086000BF6068BD
:100C6000002813D0FFF71AFD054607E020E0FFF744
:100C700015FD401B642801D90320B0E7B448006883
:100C80000121490408400028F1D011E0FFF706FDDA
:100C9000054606E0FFF702FD401B642801D903204A
:100CA0009DE7AB4800680121490408400028F1D1C4
:100CB000022120680840022877D1E068002802D08D
:100CC000E068012800D104E0FF214E3192A001F03C
:100CD0001CFA20691F2800D804E0FF214F318EA0A4
:100CE00001F013FA9A4840680C21084000280CD003
:100CF00097484068084008281CD195484068490337
:100D000008400121C903884214D19148006802219A
:100D10000840002804D0E068012801D001205EE7E7
:100D20008B480068F82188432169C9000843884935
:100D300008603AE0E068002820D08548006801217A
:100D4000084383490860FFF7A9FC054606E0FFF762
:100D5000A5FC401B022801D9032040E77C4800681D
:100D6000022108400028F2D079480068F821884321
:100D70002169C90008437649086016E07448006894
:100D80004008400072490860FFF788FC054606E00D
:100D9000FFF784FC401B022801D903201FE76C48A1
:100DA0000068022108400028F2D10821206808408C
:100DB00008283DD1E069002802D0E069012800D16F
:100DC00004E0FF218F3154A001F09FF9E069002871
:100DD00017D05F48406A012108435D494862FFF728
:100DE0005DFC054606E0FFF759FC401B022801D9CF
:100DF0000320F4E65648406A022108400028F2D059
:100E000016E05348406A4008400051494862FFF7E5
:100E100045FC054606E0FFF741FC401B022801D9CE
:100E20000320DCE64A48406A022108400028F2D14B
:100E300004212068084004286DD10026A0680028FD
:100E400005D0A068012802D0A068052800D104E0E0
:100E5000FF21BB3130A001F058F93D48C0690121A4
:100E60000907084000280DD100BF3948C069084370
:100E70003749C8610846C06909040840009000BFAE
:100E800000BF012633480068FF21013108400028D7
:100E900016D13048006808432E490860FFF7FEFB72
:100EA000054606E0FFF7FAFB401B642801D9032042
:100EB00095E628480068FF21013108400028F1D05C
:100EC00000BFA068012806D12148006A012108431B
:100ED0001F4908624CE0A06800280CD11C48006A39
:100EE000400840001A4908620846006A0421884305
:100EF000174908623CE0A06805282DD11448006A13
:100F000004210843124908620846006A0121084387
:100F10000F4908622CE05DE02E2E2F447269766541
:100F200072732F53544D3332463078785F48414CBA
:100F30005F4472697665722F5372632F73746D33D9
:100F400032663078785F68616C5F7263632E63002D
:100F50000010024000700040E648006A400840006F
:100F6000E44908620846006A04218843E1490862AE
:100F700000BFA068002812D0FFF790FB054607E0ED
:100F8000FFF78CFB401BDC49884201D9032026E691
:100F9000D848006A022108400028F1D011E0FFF78C
:100FA0007DFB054607E0FFF779FB401BD2498842ED
:100FB00001D9032013E6CF48006A02210840002827
:100FC000F1D1012E05D1CB48C06931078843C94909
:100FD000C86100BF102120680840102871D16069E5
:100FE000002806D06069012803D06069401D0028F0
:100FF00000D104E001214902C04801F086F8A0694F
:101000001F2800D803E0BE49BC4801F07EF86069A3
:10101000012826D1B748406B04210843B5494863ED
:101020000846406B01210843B2494863FFF736FB8D
:10103000054606E0FFF732FB401B022801D90320DA
:10104000CDE5AC48406B022108400028F2D0A94809
:10105000406BF8218843A169C9000843A54948634A
:101060002FE06069401D00280FD1A248406B042189
:101070008843A04948630846406BF8218843A1692A
:10108000C90008439B4948631BE09A48406B042110
:101090000843984948630846406B4008400048634D
:1010A000FFF7FCFA054606E0FFF7F8FA401B0228B6
:1010B00001D9032093E58F48406B022108400028A6
:1010C000F2D1206A002805D0206A012802D0206AC7
:1010D000022800D104E09D218900884801F015F81C
:1010E000206A00287ED0834840680C2108400828E8
:1010F00079D0206A022877D10121C903606A884229
:1011000003D04900606A884200D104E07C497C3108
:101110007A4800F0FAFFA06A002844D0012189042F
:10112000A06A88423FD04900A06A88423BD0032190
:101130008904A06A884236D001210905A06A884244
:1011400031D005218904A06A88422CD00321C9042A
:10115000A06A884227D007218904A06A884222D049
:1011600001214905A06A88421DD009218904A06A8D
:10117000884218D00521C904A06A884213D00B21E7
:101180008904A06A88420ED003210905A06A88421A
:1011900009D00D218904A06A884204D00721C9041E
:1011A000A06A884200D104E055497D31534800F0DF
:1011B000ACFFE06A002830D0E06A01282DD0E06A58
:1011C00002282AD0E06A032827D0E06A042824D025
:1011D000E06A052821D0E06A06281ED0E06A0728C8
:1011E0001BD002E083E080E065E0E06A082814D0CC
:1011F000E06A092811D0E06A0A280ED0E06A0B28BC
:101200000BD0E06A0C2808D0E06A0D2805D0E06A0F
:101210000E2802D0E06A0F2800D104E038497E3160
:10122000364800F072FF3348006801210906884300
:1012300030490860FFF732FA054606E0FFF72EFA5C
:10124000401B022801D90320C9E42A480068012173
:10125000490608400028F1D100BF2648C06A0009AD
:101260000001E16A08432349C862616AA06A084331
:10127000204949687B22D203914308431D494860B5
:1012800000BF0846006801210906084319490860A3
:10129000FFF704FA054606E0FFF700FA401B0228B4
:1012A00001D903209BE41348006801214906084046
:1012B0000028F1D01BE00F4800680121090688438F
:1012C0000C490860FFF7EAF9054606E0FFF7E6F982
:1012D000401B022801D9032081E40648006801214F
:1012E000490608400028F1D101E0012077E4002000
:1012F00075E400000010024088130000180F000879
:101300000102000070B504462546681E094988425E
:1013100001D901200CE0681E074948610321081F1C
:1013200000F002F9002004498861072008610020CC
:1013300070BD0000FFFFFF0000E000E000BFFEE71F
:1013400000B587B0142102A8FEF785FF00BF6E48E4
:1013500040690121C90408436B4948610846406956
:101360000121C9040840019000BF00BF00BF6648CA
:101370004069C90008436449486108464069012141
:1013800089050840019000BF00BF00BF5E4840696A
:10139000491108435C4948610846406901214904F4
:1013A0000840019000BF00BF00BF57484069490096
:1013B00008435549486108464069012189040840AD
:1013C000019000BF00BF00BF4F484069890008433B
:1013D0004D494861084640690121090508400190CE
:1013E00000BF00BF00220F2189014848FFF716F90E
:1013F0000022FF2101314648FFF710F93F2080020B
:101400000290032003900020049002A93F48FEF7B9
:101410005DFF0320029003900020049002A93D4844
:10142000FEF754FF03200290022003900020049056
:10143000032005900220069002A93448FEF746FFDB
:101440000C200290022003900020049003200590BD
:101450000120069002A92D48FEF738FF2E48029081
:10146000032003900020049002A90920C006FEF783
:101470002DFF3020029002200390002004900320D2
:1014800005900120069002A92048FEF71FFF23487F
:101490000290032003900020049002A91C48FEF74C
:1014A00015FF01208002029002200390002004908A
:1014B000032005900520069002A91548FEF706FFB7
:1014C0000F208001029001200390002004900590DD
:1014D00002A90E48FEF7FAFE0420029003200390B2
:1014E0000020049002A90E48FEF7F0FEFF20013014
:1014F00002900120039000200490059002A9044866
:10150000FEF7E4FE07B000BD0010024000080048EE
:101510000004004800140048FF9F0000FFFA00008C
:10152000000C00487047000010B5002819DA1A4A6C
:1015300003071B0F083B9B089B00D2588307DC0E58
:10154000FF23A3409A438B071B0E8407E40EA3409E
:101550001A43114B0407240F083CA408A4001A5195
:1015600018E00E4A03231B02D21883089B00D258AE
:101570008307DC0EFF23A3409A438B071B0E8407CF
:10158000E40EA3401A43054B032424021B198408CC
:10159000A4001A5110BD00001CED00E000E100E0C5
:1015A00010B500F00FF800F0DDFA00F005FB00F0D8
:1015B00025FB00F0B1FA00F057FB00F07DFB00F0D6
:1015C00002F810BD7047704710B500241C48007821
:1015D000012833D1FEF788FD04461A480078002818
:1015E00004D018480078401E164908701548007845
:1015F000002820D11448007800281CD100F0CAFB34
:1016000012480078800012490858124908600F48B3
:1016100000781149097888420DD00E480068006BA7
:10162000401C0C49096808630C480068401C0B49C1
:101630000860FEF7AFFD2046FEF75AFD10BD000022
:1016400022000020150000201600002018000020B5
:1016500010050020300000201700002000000020AE
:1016600010B50C480078002812D100F093FB0A480E
:1016700000780A490870084800788000084908582E
:10168000084908600846006807490860FEF733FD0E
:1016900010BD0000220000201800002017000020CC
:1016A00010050020300000202800002070470000B6
:1016B000FFB585B006460F461C4600200390FEF796
:1016C00013FD039020480078002805D00398FEF70A
:1016D0000FFD3C2009B0F0BDA0001C4908580028AF
:1016E0002DD10120A100194A50500398FEF700FDAA
:1016F000002339463046079A00F004F90490002090
:10170000009001900346024602902046049900F0A2
:1017100057FB0546002D06D10D48007801280CD155
:1017200000F0FCFA09E0FEF7DFFC03900020A100C6
:10173000064A50500398FEF7DBFC2846CAE7039898
:10174000FEF7D6FC2820C5E7150000201005002074
:1017500022000020FFB585B01C460F9F129D00207F
:101760000390FEF7C1FC039022480078002805D0C2
:101770000398FEF7BDFC3C2009B0F0BDA0001E4957
:101780000858002831D10120A1001B4A505003986D
:10179000FEF7AEFC2A463846109900F027FC2B468F
:1017A00005A807C800F0AEF80490119910986A4691
:1017B00023C23A4620460E9B049900F001FB0646E0
:1017C000002E06D10D48007801280CD100F0A6FAB1
:1017D00009E0FEF789FC03900020A100064A505062
:1017E0000398FEF785FC3046C6E70398FEF780FCB9
:1017F0002820C1E71500002010050020220000204D
:1018000070477047F8B506460F4614460020009012
:1018100015480078002802D012202070F8BDFEF78D
:1018200063FC0090FF2E03D1104800682030867AB8
:10183000B0000F490D58002D05D10098FEF758FC57
:1018400043202070EAE7012D05D10098FEF750FCF7
:1018500043202070E2E76F640098FEF749FC002007
:10186000207000BFDAE700001500002028000020EB
:101870001005002070470000FEB507460D46002009
:10188000009028606860FEF72FFC0090FF2F03D1C6
:101890001A4800682030877AB80019490C58002C83
:1018A00004D10098FEF724FC4320FEBD012C04D196
:1018B0000098FEF71DFC4320F7E7207CC007C00F0F
:1018C000002804D10098FEF713FC4520EDE7002620
:1018D000E0680190A06802900098FEF709FC00E023
:1018E000761C029802C802900029F9D0B000286046
:1018F0000198801B800068600020D6E72800002047
:101900001005002070B50446104601252D0605601F
:10191000051F28462C600126F643051F28462E6029
:10192000194E051F28462E60184E051F28462E60AA
:10193000174E051F28462E607610051F28462E607C
:10194000051F28462960134E051F28462E60124E9B
:10195000051F28462E60114E051F28462E60104E8A
:10196000051F28462E600F4E051F28462E600E4E7E
:10197000051F28462E600D4E051F28462E600C4E72
:10198000051F28462E6070BD1212121203030303B6
:101990000202020211111111101010100909090997
:1019A00008080808070707070606060605050505CF
:1019B00004040404F8B5054600200090FEF794FBEB
:1019C0000090FF2D05D1214800682030857A01263E
:1019D00008E01E4800682030807AA84201D1012624
:1019E00000E00026A8001A490C58002C04D10098E9
:1019F000FEF77EFB4820F8BD012C04D10098FEF7CD
:101A000077FB4320F7E72C20075D1248C05D2D21AE
:101A1000095D88430F49C8550846C05D002806D1B6
:101A20002E20015D0C48007888430B49087028205F
:101A3000005D08210843282108550098FEF758FB4F
:101A4000012E01D100F06AF90020D4E7280000201F
:101A5000100500201A000020190000207047000027
:101A600070B50546002619480078002800D070BDE2
:101A700017480078002800D0F9E7002D24D0FEF7A1
:101A800033FB0646134800682030047B1248005D93
:101A9000104909682031497B88430F490855084699
:101AA000005D002808D10B4800682030817B0B487E
:101AB0000078884309490870064800684562304646
:101AC000FEF716FB00F02AF900BFD0E71500002052
:101AD00016000020280000201A0000201900002015
:101AE00010B57D21C9000A480068FEF797FB04463F
:101AF000601E0849486108460069052108430549F8
:101B0000086108460069022108430249086110BDC6
:101B10004400002000E000E070B5C8210F4800F04C
:101B2000F3F800240DE0601C85B2142060430B49DB
:101B30004318142068434618002018705E60601C2B
:101B400084B2092CEFD314206043044943180020C9
:101B50001870586008460249086070BD48000020AF
:101B60000400002000200A4908600A4908700A4958
:101B700008700A4908700A4908700A4908600A4949
:101B800008600A4908600A4908600A4908707047F5
:101B90003C0000201500002016000020230000203B
:101BA000220000200000002024000020100000205F
:101BB0000C0000201400002000210A4A11700020AF
:101BC00004E00021084A1154411CC8B20828F8D387
:101BD0000021064A1170064A1170064A1160064A31
:101BE00011607047190000201A0000201700002023
:101BF00018000020300000202800002070B5D121FE
:101C0000C900144800F080F8FF210131124800F0AB
:101C10007BF800240DE0601CC5B24C2060430D49E8
:101C200043184C20684346185E610CA05864601C41
:101C3000C4B2152CEFD34C20604306494318002052
:101C4000586106A05864002005490860014805490C
:101C5000086070BD10060020100500203F00000045
:101C6000340000202C00002000B587B003200021A4
:101C70008022094B019302920391049007483F236D
:101C8000074A00900748FFF765FD06AA06A13F2016
:101C9000FFF7B8FD07B000BD10030020FFFF0000F4
:101CA0000C050020FD1E000875432F4F532D494998
:101CB0002049646C6500000000B587B00320002156
:101CC0008022094B019302920391049007483E231E
:101CD000074A00900748FFF73DFD06AA06A13E20EF
:101CE000FFF790FD07B000BD10010020FEFF0000CF
:101CF0000C030020251F000875432F4F532D494921
:101D0000205374617400000004E000220270401C43
:101D10004A1E91B20029F8D17047000010B5002486
:101D2000FEF7E2F9044614480078002820D1134851
:101D3000007800281CD100F02DF8114800788000B0
:101D400010490858104908600D4800780F49097873
:101D500088420DD00C480068006B401C0A49096895
:101D600008630B480068401C09490860FEF7DEF96B
:101D70002046FEF7BDF910BD15000020160000201A
:101D8000180000201005002030000020170000205F
:101D9000000000200649074A1278885CC100064A04
:101DA000125C034B9A5C8918044A1170704700005A
:101DB00068210008190000201A00002018000020E7
:101DC000FFB581B005460F4600200090FEF78CF964
:101DD000009043480468002C7DD041496069086048
:101DE0000098FEF785F927602A2005550021282054
:101DF000015529200155002060620B9860600A9807
:101E0000E0600398A0600C982082049860822F20E4
:101E10000155E9102C2001556907490F2B20015568
:101E20002C20015D01208840C1B22E2001552B20BD
:101E3000015D01208840C1B22D2001550020E061E4
:101E400020622063A0636063E063206425A0606477
:101E5000002606E00021B200204648308150701C68
:101E6000C6B2002EF6D02046FFF720FC2046FFF732
:101E7000C7FCFEF739F90090A8001B490C501B481D
:101E8000006860610020A06118480068002802D046
:101E9000164800688461154804602E20005D1449CE
:101EA00009780843124908702C20005D1149085C2C
:101EB0002D21095D08432C21095D0E4A50540E481E
:101EC0000078401C0C4908700098FEF711F90020BA
:101ED00005B0F0BDFFE70098FEF70AF94220F7E7EA
:101EE0002C0000203F0000001005002034000020DE
:101EF000190000201A00002023000020002400BF49
:101F000000BFFEF7F1F8044605480068401C04498C
:101F100008602046FEF7ECF8FFF773FCF1E70000DD
:101F200024000020002400BF02E0C820FFF798FD35
:101F3000194800780028F8D0642118480068FEF796
:101F40006DF91649086008460068002804D1144954
:101F50000870FF20FFF72EFD00BFFEF7C5F804460E
:101F6000104800681049086000200E4908602046AB
:101F7000FEF7BEF8094801680B480068FEF74EF905
:101F80006421081A06490870FFF774FC00F00EF887
:101F90006420FFF765FDE0E7140000200C0000203E
:101FA0000800002024000020100000207CB500253F
:101FB00016E069462846FFF75FFC0646002E0DD165
:101FC000A80009490C58002C08D0012C06D0E16863
:101FD0008900A0684018E06301982064681CC5B2BD
:101FE0003F2DE6D97CBD000010050020D307DB0F94
:101FF000002B09D002231340002B05D002E0491E1C
:10200000002308C00029FAD170477047704710B507
:10201000FEF74AFB10BD00B591B0302105A8FEF7D0
:102020001AF900200190029003900490022005907C
:10203000012008901020099002200D9081030E913C
:1020400081040F910021109105A8FEF769FD002879
:1020500001D0FEF739F907200190022002900020FC
:1020600003900490012101A8FEF798FB002801D0FD
:10207000FEF72AF911B000BD194800680121084394
:1020800017490860084640681649084014494860E6
:10209000084600681449084011490860084600686D
:1020A0000121890488430E490860084640683F21A1
:1020B000090488430A4948600846C06A00090001CB
:1020C000C8620846006BFF21143188430449086345
:1020D0000846406B40084000486300208860704715
:1020E000001002400CB8FF08FFFFF6FE02E008C82F
:1020F000121F08C1002AFAD170477047002001E082
:1021000001C1121F002AFBD170477047002106E071
:10211000064900BF0A464B1E99B2002AFAD1024670
:10212000431E98B2002AF3D170470000E02E000051
:1021300010B5FEF7C1FAFFF76EFFFFF731FAFFF7B0
:10214000CFFCFFF7FDF80323054A00210548FFF700
:10215000AFFA044600BFFFF783FA002010BD00006D
:10216000940E00209102000800000100020001000E
:102170000300010002000100040001000200010050
:10218000030001000200010005000100020001003F
:102190000300010002000100040001000200010030
:1021A000030001000200010006000100020001001E
:1021B0000300010002000100040001000200010010
:1021C00003000100020001000500010002000100FF
:1021D00003000100020001000400010002000100F0
:1021E00003000100020001000700010002000100DD
:1021F00003000100020001000400010002000100D0
:1022000003000100020001000500010002000100BE
:1022100003000100020001000400010002000100AF
:10222000030001000200010006000100020001009D
:10223000030001000200010004000100020001008F
:10224000030001000200010005000100020001007E
:10225000030001000200010004000100020001006F
:102260000300010002000100000000000000000067
:10227000010203040607080900000000010203042C
:10228000A02200080000002048000000EC20000808
:10229000E82200084800002050120000FC2000083E
:1022A000000000000000000000000000000000002E
:1022B000000000000000000000000000000000001E
:1022C000000000000000000000000000000000000E
:1022D00000000000000000000000000000000000FE
:0822E0000000000000127A006A
:04000005080000B936
:00000001FF
